{
  "_format": "hh-sol-artifact-1",
  "contractName": "BananShop",
  "sourceName": "contracts/token_bep20.sol",
  "abi": [
    {
      "inputs": [],
      "stateMutability": "nonpayable",
      "type": "constructor"
    },
    {
      "anonymous": false,
      "inputs": [
        {
          "indexed": false,
          "internalType": "uint256",
          "name": "_amount",
          "type": "uint256"
        },
        {
          "indexed": true,
          "internalType": "address",
          "name": "_buyer",
          "type": "address"
        }
      ],
      "name": "Purchase",
      "type": "event"
    },
    {
      "anonymous": false,
      "inputs": [
        {
          "indexed": false,
          "internalType": "uint256",
          "name": "_amount",
          "type": "uint256"
        },
        {
          "indexed": true,
          "internalType": "address",
          "name": "_seller",
          "type": "address"
        }
      ],
      "name": "Sale",
      "type": "event"
    },
    {
      "inputs": [],
      "name": "owner",
      "outputs": [
        {
          "internalType": "address payable",
          "name": "",
          "type": "address"
        }
      ],
      "stateMutability": "view",
      "type": "function"
    },
    {
      "inputs": [
        {
          "internalType": "uint256",
          "name": "_amountToSell",
          "type": "uint256"
        }
      ],
      "name": "sell",
      "outputs": [],
      "stateMutability": "nonpayable",
      "type": "function"
    },
    {
      "inputs": [],
      "name": "token",
      "outputs": [
        {
          "internalType": "contract IBEP20",
          "name": "",
          "type": "address"
        }
      ],
      "stateMutability": "view",
      "type": "function"
    },
    {
      "inputs": [],
      "name": "tokenBalance",
      "outputs": [
        {
          "internalType": "uint256",
          "name": "",
          "type": "uint256"
        }
      ],
      "stateMutability": "view",
      "type": "function"
    },
    {
      "stateMutability": "payable",
      "type": "receive"
    }
  ],
  "bytecode": "0x608060405234801561001057600080fd5b503060405161001e906100ca565b6100289190610118565b604051809103906000f080158015610044573d6000803e3d6000fd5b506000806101000a81548173ffffffffffffffffffffffffffffffffffffffff021916908373ffffffffffffffffffffffffffffffffffffffff16021790555033600160006101000a81548173ffffffffffffffffffffffffffffffffffffffff021916908373ffffffffffffffffffffffffffffffffffffffff160217905550610133565b611aa980610bee83390190565b600073ffffffffffffffffffffffffffffffffffffffff82169050919050565b6000610102826100d7565b9050919050565b610112816100f7565b82525050565b600060208201905061012d6000830184610109565b92915050565b610aac806101426000396000f3fe6080604052600436106100435760003560e01c80638da5cb5b146101bc5780639e1a4d19146101e7578063e4849b3214610212578063fc0c546a1461023b576101b7565b366101b757600034905060008111610090576040517f08c379a0000000000000000000000000000000000000000000000000000000008152600401610087906106a3565b60405180910390fd5b80610099610266565b10156100da576040517f08c379a00000000000000000000000000000000000000000000000000000000081526004016100d19061070f565b60405180910390fd5b60008054906101000a900473ffffffffffffffffffffffffffffffffffffffff1673ffffffffffffffffffffffffffffffffffffffff1663a9059cbb33836040518363ffffffff1660e01b8152600401610135929190610789565b600060405180830381600087803b15801561014f57600080fd5b505af1158015610163573d6000803e3d6000fd5b505050503373ffffffffffffffffffffffffffffffffffffffff167f6b8e277b5ac199aea04139b79dce59b078ad22c9648f1bd3083495991809b770826040516101ad91906107b2565b60405180910390a2005b600080fd5b3480156101c857600080fd5b506101d1610308565b6040516101de91906107ee565b60405180910390f35b3480156101f357600080fd5b506101fc610266565b60405161020991906107b2565b60405180910390f35b34801561021e57600080fd5b506102396004803603810190610234919061083a565b61032e565b005b34801561024757600080fd5b50610250610622565b60405161025d91906108c6565b60405180910390f35b60008060009054906101000a900473ffffffffffffffffffffffffffffffffffffffff1673ffffffffffffffffffffffffffffffffffffffff166370a08231306040518263ffffffff1660e01b81526004016102c291906108e1565b602060405180830381865afa1580156102df573d6000803e3d6000fd5b505050506040513d601f19601f820116820180604052508101906103039190610911565b905090565b600160009054906101000a900473ffffffffffffffffffffffffffffffffffffffff1681565b6000811180156103d757508060008054906101000a900473ffffffffffffffffffffffffffffffffffffffff1673ffffffffffffffffffffffffffffffffffffffff166370a08231336040518263ffffffff1660e01b815260040161039391906108e1565b602060405180830381865afa1580156103b0573d6000803e3d6000fd5b505050506040513d601f19601f820116820180604052508101906103d49190610911565b10155b610416576040517f08c379a000000000000000000000000000000000000000000000000000000000815260040161040d9061098a565b60405180910390fd5b60008060009054906101000a900473ffffffffffffffffffffffffffffffffffffffff1673ffffffffffffffffffffffffffffffffffffffff1663dd62ed3e33306040518363ffffffff1660e01b81526004016104749291906109aa565b602060405180830381865afa158015610491573d6000803e3d6000fd5b505050506040513d601f19601f820116820180604052508101906104b59190610911565b9050818110156104fa576040517f08c379a00000000000000000000000000000000000000000000000000000000081526004016104f190610a1f565b60405180910390fd5b60008054906101000a900473ffffffffffffffffffffffffffffffffffffffff1673ffffffffffffffffffffffffffffffffffffffff166323b872dd3330856040518463ffffffff1660e01b815260040161055793929190610a3f565b600060405180830381600087803b15801561057157600080fd5b505af1158015610585573d6000803e3d6000fd5b505050503373ffffffffffffffffffffffffffffffffffffffff166108fc839081150290604051600060405180830381858888f193505050501580156105cf573d6000803e3d6000fd5b503373ffffffffffffffffffffffffffffffffffffffff167f938e870e870a8d47d06b8bbd499d54ea37fb4f7777de1ff086d6d71e1fa159968360405161061691906107b2565b60405180910390a25050565b60008054906101000a900473ffffffffffffffffffffffffffffffffffffffff1681565b600082825260208201905092915050565b7f6e6f7420656e6f7567682066756e647321000000000000000000000000000000600082015250565b600061068d601183610646565b915061069882610657565b602082019050919050565b600060208201905081810360008301526106bc81610680565b9050919050565b7f6e6f7420656e6f75676820746f6b656e73210000000000000000000000000000600082015250565b60006106f9601283610646565b9150610704826106c3565b602082019050919050565b60006020820190508181036000830152610728816106ec565b9050919050565b600073ffffffffffffffffffffffffffffffffffffffff82169050919050565b600061075a8261072f565b9050919050565b61076a8161074f565b82525050565b6000819050919050565b61078381610770565b82525050565b600060408201905061079e6000830185610761565b6107ab602083018461077a565b9392505050565b60006020820190506107c7600083018461077a565b92915050565b60006107d88261072f565b9050919050565b6107e8816107cd565b82525050565b600060208201905061080360008301846107df565b92915050565b600080fd5b61081781610770565b811461082257600080fd5b50565b6000813590506108348161080e565b92915050565b6000602082840312156108505761084f610809565b5b600061085e84828501610825565b91505092915050565b6000819050919050565b600061088c6108876108828461072f565b610867565b61072f565b9050919050565b600061089e82610871565b9050919050565b60006108b082610893565b9050919050565b6108c0816108a5565b82525050565b60006020820190506108db60008301846108b7565b92915050565b60006020820190506108f66000830184610761565b92915050565b60008151905061090b8161080e565b92915050565b60006020828403121561092757610926610809565b5b6000610935848285016108fc565b91505092915050565b7f696e636f727265637420616d6f756e7421000000000000000000000000000000600082015250565b6000610974601183610646565b915061097f8261093e565b602082019050919050565b600060208201905081810360008301526109a381610967565b9050919050565b60006040820190506109bf6000830185610761565b6109cc6020830184610761565b9392505050565b7f636865636b20616c6c6f77616e63652100000000000000000000000000000000600082015250565b6000610a09601083610646565b9150610a14826109d3565b602082019050919050565b60006020820190508181036000830152610a38816109fc565b9050919050565b6000606082019050610a546000830186610761565b610a616020830185610761565b610a6e604083018461077a565b94935050505056fea2646970667358221220b7c930478ed79c026bbd65411b243137bee0da32c62fbda12f7924106e13f88d64736f6c6343000811003360806040523480156200001157600080fd5b5060405162001aa938038062001aa983398181016040528101906200003791906200031d565b6040518060400160405280600a81526020017f42616e616e546f6b656e000000000000000000000000000000000000000000008152506040518060400160405280600381526020017f42414e000000000000000000000000000000000000000000000000000000000081525061014d838360049081620000b89190620005c9565b508260059081620000ca9190620005c9565b5033600160006101000a81548173ffffffffffffffffffffffffffffffffffffffff021916908373ffffffffffffffffffffffffffffffffffffffff1602179055506200011e82826200012960201b60201c565b5050505050620007cb565b600160009054906101000a900473ffffffffffffffffffffffffffffffffffffffff1673ffffffffffffffffffffffffffffffffffffffff163373ffffffffffffffffffffffffffffffffffffffff1614620001bc576040517f08c379a0000000000000000000000000000000000000000000000000000000008152600401620001b39062000711565b60405180910390fd5b620001d060008284620002ae60201b60201c565b81600260008373ffffffffffffffffffffffffffffffffffffffff1673ffffffffffffffffffffffffffffffffffffffff168152602001908152602001600020600082825462000221919062000762565b92505081905550816000808282546200023b919062000762565b925050819055508073ffffffffffffffffffffffffffffffffffffffff16600073ffffffffffffffffffffffffffffffffffffffff167fddf252ad1be2c89b69c2b068fc378daa952ba7f163c4a11628f55a4df523b3ef84604051620002a29190620007ae565b60405180910390a35050565b505050565b600080fd5b600073ffffffffffffffffffffffffffffffffffffffff82169050919050565b6000620002e582620002b8565b9050919050565b620002f781620002d8565b81146200030357600080fd5b50565b6000815190506200031781620002ec565b92915050565b600060208284031215620003365762000335620002b3565b5b6000620003468482850162000306565b91505092915050565b600081519050919050565b7f4e487b7100000000000000000000000000000000000000000000000000000000600052604160045260246000fd5b7f4e487b7100000000000000000000000000000000000000000000000000000000600052602260045260246000fd5b60006002820490506001821680620003d157607f821691505b602082108103620003e757620003e662000389565b5b50919050565b60008190508160005260206000209050919050565b60006020601f8301049050919050565b600082821b905092915050565b600060088302620004517fffffffffffffffffffffffffffffffffffffffffffffffffffffffffffffffff8262000412565b6200045d868362000412565b95508019841693508086168417925050509392505050565b6000819050919050565b6000819050919050565b6000620004aa620004a46200049e8462000475565b6200047f565b62000475565b9050919050565b6000819050919050565b620004c68362000489565b620004de620004d582620004b1565b8484546200041f565b825550505050565b600090565b620004f5620004e6565b62000502818484620004bb565b505050565b5b818110156200052a576200051e600082620004eb565b60018101905062000508565b5050565b601f82111562000579576200054381620003ed565b6200054e8462000402565b810160208510156200055e578190505b620005766200056d8562000402565b83018262000507565b50505b505050565b600082821c905092915050565b60006200059e600019846008026200057e565b1980831691505092915050565b6000620005b983836200058b565b9150826002028217905092915050565b620005d4826200034f565b67ffffffffffffffff811115620005f057620005ef6200035a565b5b620005fc8254620003b8565b620006098282856200052e565b600060209050601f8311600181146200064157600084156200062c578287015190505b620006388582620005ab565b865550620006a8565b601f1984166200065186620003ed565b60005b828110156200067b5784890151825560018201915060208501945060208101905062000654565b868310156200069b578489015162000697601f8916826200058b565b8355505b6001600288020188555050505b505050505050565b600082825260208201905092915050565b7f796f7520617265206e6f7420616e206f776e6572000000000000000000000000600082015250565b6000620006f9601483620006b0565b91506200070682620006c1565b602082019050919050565b600060208201905081810360008301526200072c81620006ea565b9050919050565b7f4e487b7100000000000000000000000000000000000000000000000000000000600052601160045260246000fd5b60006200076f8262000475565b91506200077c8362000475565b925082820190508082111562000797576200079662000733565b5b92915050565b620007a88162000475565b82525050565b6000602082019050620007c560008301846200079d565b92915050565b6112ce80620007db6000396000f3fe608060405234801561001057600080fd5b50600436106100cf5760003560e01c806370a082311161008c57806394bf804d1161006657806394bf804d146101ec57806395d89b4114610208578063a9059cbb14610226578063dd62ed3e14610242576100cf565b806370a082311461018257806379cc6790146101b2578063893d20e8146101ce576100cf565b806306fdde03146100d4578063095ea7b3146100f257806318160ddd1461010e57806323b872dd1461012c578063313ce5671461014857806342966c6814610166575b600080fd5b6100dc610272565b6040516100e99190610de1565b60405180910390f35b61010c60048036038101906101079190610e9c565b610304565b005b6101166103ee565b6040516101239190610eeb565b60405180910390f35b61014660048036038101906101419190610f06565b6103f7565b005b6101506106b9565b60405161015d9190610eeb565b60405180910390f35b610180600480360381019061017b9190610f59565b6106c2565b005b61019c60048036038101906101979190610f86565b6107cf565b6040516101a99190610eeb565b60405180910390f35b6101cc60048036038101906101c79190610e9c565b610818565b005b6101d6610926565b6040516101e39190610fc2565b60405180910390f35b61020660048036038101906102019190610fdd565b610950565b005b610210610ac4565b60405161021d9190610de1565b60405180910390f35b610240600480360381019061023b9190610e9c565b610b56565b005b61025c6004803603810190610257919061101d565b610cc5565b6040516102699190610eeb565b60405180910390f35b6060600480546102819061108c565b80601f01602080910402602001604051908101604052809291908181526020018280546102ad9061108c565b80156102fa5780601f106102cf576101008083540402835291602001916102fa565b820191906000526020600020905b8154815290600101906020018083116102dd57829003601f168201915b5050505050905090565b80600360003373ffffffffffffffffffffffffffffffffffffffff1673ffffffffffffffffffffffffffffffffffffffff16815260200190815260200160002060008473ffffffffffffffffffffffffffffffffffffffff1673ffffffffffffffffffffffffffffffffffffffff168152602001908152602001600020819055508173ffffffffffffffffffffffffffffffffffffffff163373ffffffffffffffffffffffffffffffffffffffff167f6e11fb1b7f119e3f2fa29896ef5fdf8b8a2d0d4df6fe90ba8668e7d8b2ffa25e836040516103e29190610eeb565b60405180910390a35050565b60008054905090565b828180610403836107cf565b1015610444576040517f08c379a000000000000000000000000000000000000000000000000000000000815260040161043b90611109565b60405180910390fd5b61044f858585610d4c565b82600360008773ffffffffffffffffffffffffffffffffffffffff1673ffffffffffffffffffffffffffffffffffffffff16815260200190815260200160002060008673ffffffffffffffffffffffffffffffffffffffff1673ffffffffffffffffffffffffffffffffffffffff16815260200190815260200160002054101561050e576040517f08c379a000000000000000000000000000000000000000000000000000000000815260040161050590611175565b60405180910390fd5b82600360008773ffffffffffffffffffffffffffffffffffffffff1673ffffffffffffffffffffffffffffffffffffffff16815260200190815260200160002060003373ffffffffffffffffffffffffffffffffffffffff1673ffffffffffffffffffffffffffffffffffffffff168152602001908152602001600020600082825461059a91906111c4565b9250508190555082600260008773ffffffffffffffffffffffffffffffffffffffff1673ffffffffffffffffffffffffffffffffffffffff16815260200190815260200160002060008282546105f091906111c4565b9250508190555082600260008673ffffffffffffffffffffffffffffffffffffffff1673ffffffffffffffffffffffffffffffffffffffff168152602001908152602001600020600082825461064691906111f8565b925050819055508373ffffffffffffffffffffffffffffffffffffffff168573ffffffffffffffffffffffffffffffffffffffff167fddf252ad1be2c89b69c2b068fc378daa952ba7f163c4a11628f55a4df523b3ef856040516106aa9190610eeb565b60405180910390a35050505050565b60006012905090565b600160009054906101000a900473ffffffffffffffffffffffffffffffffffffffff1673ffffffffffffffffffffffffffffffffffffffff163373ffffffffffffffffffffffffffffffffffffffff1614610752576040517f08c379a000000000000000000000000000000000000000000000000000000000815260040161074990611278565b60405180910390fd5b61075e33600083610d4c565b80600260003373ffffffffffffffffffffffffffffffffffffffff1673ffffffffffffffffffffffffffffffffffffffff16815260200190815260200160002060008282546107ad91906111c4565b92505081905550806000808282546107c591906111c4565b9250508190555050565b6000600260008373ffffffffffffffffffffffffffffffffffffffff1673ffffffffffffffffffffffffffffffffffffffff168152602001908152602001600020549050919050565b600160009054906101000a900473ffffffffffffffffffffffffffffffffffffffff1673ffffffffffffffffffffffffffffffffffffffff163373ffffffffffffffffffffffffffffffffffffffff16146108a8576040517f08c379a000000000000000000000000000000000000000000000000000000000815260040161089f90611278565b60405180910390fd5b6108b482600083610d4c565b80600260008473ffffffffffffffffffffffffffffffffffffffff1673ffffffffffffffffffffffffffffffffffffffff168152602001908152602001600020600082825461090391906111c4565b925050819055508060008082825461091b91906111c4565b925050819055505050565b6000600160009054906101000a900473ffffffffffffffffffffffffffffffffffffffff16905090565b600160009054906101000a900473ffffffffffffffffffffffffffffffffffffffff1673ffffffffffffffffffffffffffffffffffffffff163373ffffffffffffffffffffffffffffffffffffffff16146109e0576040517f08c379a00000000000000000000000000000000000000000000000000000000081526004016109d790611278565b60405180910390fd5b6109ec60008284610d4c565b81600260008373ffffffffffffffffffffffffffffffffffffffff1673ffffffffffffffffffffffffffffffffffffffff1681526020019081526020016000206000828254610a3b91906111f8565b9250508190555081600080828254610a5391906111f8565b925050819055508073ffffffffffffffffffffffffffffffffffffffff16600073ffffffffffffffffffffffffffffffffffffffff167fddf252ad1be2c89b69c2b068fc378daa952ba7f163c4a11628f55a4df523b3ef84604051610ab89190610eeb565b60405180910390a35050565b606060058054610ad39061108c565b80601f0160208091040260200160405190810160405280929190818152602001828054610aff9061108c565b8015610b4c5780601f10610b2157610100808354040283529160200191610b4c565b820191906000526020600020905b815481529060010190602001808311610b2f57829003601f168201915b5050505050905090565b338180610b62836107cf565b1015610ba3576040517f08c379a0000000000000000000000000000000000000000000000000000000008152600401610b9a90611109565b60405180910390fd5b610bae338585610d4c565b82600260003373ffffffffffffffffffffffffffffffffffffffff1673ffffffffffffffffffffffffffffffffffffffff1681526020019081526020016000206000828254610bfd91906111c4565b9250508190555082600260008673ffffffffffffffffffffffffffffffffffffffff1673ffffffffffffffffffffffffffffffffffffffff1681526020019081526020016000206000828254610c5391906111f8565b925050819055508373ffffffffffffffffffffffffffffffffffffffff163373ffffffffffffffffffffffffffffffffffffffff167fddf252ad1be2c89b69c2b068fc378daa952ba7f163c4a11628f55a4df523b3ef85604051610cb79190610eeb565b60405180910390a350505050565b6000600360008473ffffffffffffffffffffffffffffffffffffffff1673ffffffffffffffffffffffffffffffffffffffff16815260200190815260200160002060008373ffffffffffffffffffffffffffffffffffffffff1673ffffffffffffffffffffffffffffffffffffffff16815260200190815260200160002054905092915050565b505050565b600081519050919050565b600082825260208201905092915050565b60005b83811015610d8b578082015181840152602081019050610d70565b60008484015250505050565b6000601f19601f8301169050919050565b6000610db382610d51565b610dbd8185610d5c565b9350610dcd818560208601610d6d565b610dd681610d97565b840191505092915050565b60006020820190508181036000830152610dfb8184610da8565b905092915050565b600080fd5b600073ffffffffffffffffffffffffffffffffffffffff82169050919050565b6000610e3382610e08565b9050919050565b610e4381610e28565b8114610e4e57600080fd5b50565b600081359050610e6081610e3a565b92915050565b6000819050919050565b610e7981610e66565b8114610e8457600080fd5b50565b600081359050610e9681610e70565b92915050565b60008060408385031215610eb357610eb2610e03565b5b6000610ec185828601610e51565b9250506020610ed285828601610e87565b9150509250929050565b610ee581610e66565b82525050565b6000602082019050610f006000830184610edc565b92915050565b600080600060608486031215610f1f57610f1e610e03565b5b6000610f2d86828701610e51565b9350506020610f3e86828701610e51565b9250506040610f4f86828701610e87565b9150509250925092565b600060208284031215610f6f57610f6e610e03565b5b6000610f7d84828501610e87565b91505092915050565b600060208284031215610f9c57610f9b610e03565b5b6000610faa84828501610e51565b91505092915050565b610fbc81610e28565b82525050565b6000602082019050610fd76000830184610fb3565b92915050565b60008060408385031215610ff457610ff3610e03565b5b600061100285828601610e87565b925050602061101385828601610e51565b9150509250929050565b6000806040838503121561103457611033610e03565b5b600061104285828601610e51565b925050602061105385828601610e51565b9150509250929050565b7f4e487b7100000000000000000000000000000000000000000000000000000000600052602260045260246000fd5b600060028204905060018216806110a457607f821691505b6020821081036110b7576110b661105d565b5b50919050565b7f6e6f7420656e6f75676820746f6b656e732e0000000000000000000000000000600082015250565b60006110f3601283610d5c565b91506110fe826110bd565b602082019050919050565b60006020820190508181036000830152611122816110e6565b9050919050565b7f636865636b20616c6c6f77616e63650000000000000000000000000000000000600082015250565b600061115f600f83610d5c565b915061116a82611129565b602082019050919050565b6000602082019050818103600083015261118e81611152565b9050919050565b7f4e487b7100000000000000000000000000000000000000000000000000000000600052601160045260246000fd5b60006111cf82610e66565b91506111da83610e66565b92508282039050818111156111f2576111f1611195565b5b92915050565b600061120382610e66565b915061120e83610e66565b925082820190508082111561122657611225611195565b5b92915050565b7f796f7520617265206e6f7420616e206f776e6572000000000000000000000000600082015250565b6000611262601483610d5c565b915061126d8261122c565b602082019050919050565b6000602082019050818103600083015261129181611255565b905091905056fea2646970667358221220bab321f80fcf13974cf9e789d0a578bbf6d1a4d2a616b68a0c6a51ac4a4646b764736f6c63430008110033",
  "linkReferences": {},
  "deployedLinkReferences": {}
}